:02000000FD2BD6
:10064E0083169F010730831299009F0183160510B0
:10065E008514051185120512851583128501A401D5
:10066E00A201A301A50185193F2BA301A30A402BCB
:10067E00A3012308031D752B85185E2B1430A100D2
:10068E007930A000A00B492BA10B492B4E2B8312C6
:10069E0085185E2B2508013EA0002008A5000B3012
:1006AE002502031C5E2B0A30A0002008A50025039E
:1006BE00031D672BA201A20A0230A0002008A5008C
:1006CE00851C752B1430A1007930A000A00B6D2B6A
:1006DE00A10B6D2B722B83128518A5012303031D0D
:1006EE00AC2B8518932B1430A1007930A000A00BF1
:1006FE007E2BA10B7E2B832B83128518932B250823
:10070E00013EA0002008A5000B302502031C932BF0
:10071E000A30A0002008A500851CA32B1430A100D0
:10072E007930A000A00B992BA10B992B9E2B831235
:10073E00851CA32BA401A5012503031DAC2BA2012F
:10074E00A20A0230A0002008A5002203031DF32BED
:10075E002408031DCE2B05151A30A100F830A00079
:10076E00A00BB72BA10BB72B000083120514851617
:10077E0005121A30A100F830A000A00BC42BA10B5B
:10078E00C42B000083120511A401A40AE82B051541
:10079E001A30A100F830A000A00BD32BA10BD32B45
:1007AE00000083120510851205121A30A100F830D0
:1007BE00A000A00BE02BA10BE02B00008312051173
:1007CE00A4010D30A100FB30A000A00BEC2BA10B5F
:1007DE00EC2BF12B8312A2012403031DF92B05141C
:1007EE008516FB2B0510851205123A2B8301272B3C
:02400E009431EB
:00000001FF
