:02000000FD2BD6
:1006760083169F010730831299009F018316051088
:100686008514051185120512851583128501A401AD
:10069600A201A301A5018519532BA301A30A542B7B
:1006A600A3012308031D802B8518692B0730A100A1
:1006B6007D30A000A00B5D2BA10B5D2B831285184E
:1006C600692B2508013EA0002008A5002503031D6F
:1006D600732BA201A20A2508013EA0002008A5004E
:1006E600851C802B0730A1007D30A000A00B792B44
:1006F600A10B792B83128518A5012303031DAE2BAD
:100706008518952B0730A1007D30A000A00B892B02
:10071600A10B892B83128518952B2508013EA00075
:100726002008A500851CA42B0730A1007D30A00061
:10073600A00B9B2BA10B9B2B8312851CA42BA40126
:10074600A5012503031DAE2BA201A20A2508013E21
:10075600A0002008A5002203031DF32B2408031D77
:10076600CF2B05154130A100EE30A000A00BB92B10
:10077600A10BB92B0000831205148516051227302C
:10078600A100F530A000A00BC62BA10BC62B83122F
:100796000511A401A40AE82B05154130A100EE308D
:1007A600A000A00BD42BA10BD42B000083120510A4
:1007B600851205122730A100F530A000A00BE12B11
:1007C600A10BE12B83120511A4010D30A100FB3012
:1007D600A000A00BEC2BA10BEC2BF12B8312A2019A
:1007E6002403031DF92B05148516FB2B0510851212
:0807F60005124E2B83013B2B81
:02400E009431EB
:00000001FF
